{
  "contractName": "ChildOwnership",
  "abi": [
    {
      "anonymous": false,
      "inputs": [
        {
          "indexed": true,
          "internalType": "address",
          "name": "_owner",
          "type": "address"
        },
        {
          "indexed": true,
          "internalType": "address",
          "name": "_approved",
          "type": "address"
        },
        {
          "indexed": true,
          "internalType": "uint256",
          "name": "_tokenId",
          "type": "uint256"
        }
      ],
      "name": "Approval",
      "type": "event"
    },
    {
      "anonymous": false,
      "inputs": [
        {
          "indexed": true,
          "internalType": "address",
          "name": "_from",
          "type": "address"
        },
        {
          "indexed": true,
          "internalType": "address",
          "name": "_to",
          "type": "address"
        },
        {
          "indexed": true,
          "internalType": "uint256",
          "name": "_tokenId",
          "type": "uint256"
        }
      ],
      "name": "Transfer",
      "type": "event"
    },
    {
      "anonymous": false,
      "inputs": [
        {
          "indexed": false,
          "internalType": "string",
          "name": "msg",
          "type": "string"
        },
        {
          "indexed": false,
          "internalType": "uint256",
          "name": "id",
          "type": "uint256"
        }
      ],
      "name": "registeredChild",
      "type": "event"
    },
    {
      "anonymous": false,
      "inputs": [
        {
          "indexed": false,
          "internalType": "string",
          "name": "msg",
          "type": "string"
        },
        {
          "indexed": false,
          "internalType": "uint256",
          "name": "id",
          "type": "uint256"
        }
      ],
      "name": "registeredGuardian",
      "type": "event"
    },
    {
      "anonymous": false,
      "inputs": [
        {
          "indexed": false,
          "internalType": "string",
          "name": "msg",
          "type": "string"
        },
        {
          "indexed": false,
          "internalType": "uint256",
          "name": "id",
          "type": "uint256"
        }
      ],
      "name": "registeredOrganisation",
      "type": "event"
    },
    {
      "constant": true,
      "inputs": [
        {
          "internalType": "address",
          "name": "",
          "type": "address"
        }
      ],
      "name": "addressToGuardian",
      "outputs": [
        {
          "internalType": "uint256",
          "name": "",
          "type": "uint256"
        }
      ],
      "payable": false,
      "stateMutability": "view",
      "type": "function"
    },
    {
      "constant": true,
      "inputs": [
        {
          "internalType": "address",
          "name": "",
          "type": "address"
        }
      ],
      "name": "addressToOrganisation",
      "outputs": [
        {
          "internalType": "uint256",
          "name": "",
          "type": "uint256"
        }
      ],
      "payable": false,
      "stateMutability": "view",
      "type": "function"
    },
    {
      "constant": true,
      "inputs": [
        {
          "internalType": "uint256",
          "name": "",
          "type": "uint256"
        }
      ],
      "name": "childApprovals",
      "outputs": [
        {
          "internalType": "address",
          "name": "",
          "type": "address"
        }
      ],
      "payable": false,
      "stateMutability": "view",
      "type": "function"
    },
    {
      "constant": true,
      "inputs": [
        {
          "internalType": "uint256",
          "name": "",
          "type": "uint256"
        }
      ],
      "name": "childToCareTaker",
      "outputs": [
        {
          "internalType": "address",
          "name": "",
          "type": "address"
        }
      ],
      "payable": false,
      "stateMutability": "view",
      "type": "function"
    },
    {
      "constant": true,
      "inputs": [
        {
          "internalType": "uint256",
          "name": "_id",
          "type": "uint256"
        }
      ],
      "name": "getGuardianDetails",
      "outputs": [
        {
          "components": [
            {
              "internalType": "string",
              "name": "name",
              "type": "string"
            },
            {
              "internalType": "enum ChildReport.GuardianType",
              "name": "guardianType",
              "type": "uint8"
            }
          ],
          "internalType": "struct ChildReport.Guardian",
          "name": "",
          "type": "tuple"
        }
      ],
      "payable": false,
      "stateMutability": "view",
      "type": "function"
    },
    {
      "constant": true,
      "inputs": [
        {
          "internalType": "uint256",
          "name": "_id",
          "type": "uint256"
        }
      ],
      "name": "getOrganisationDetails",
      "outputs": [
        {
          "components": [
            {
              "internalType": "string",
              "name": "name",
              "type": "string"
            },
            {
              "internalType": "address",
              "name": "addr",
              "type": "address"
            }
          ],
          "internalType": "struct ChildReport.Organisation",
          "name": "",
          "type": "tuple"
        }
      ],
      "payable": false,
      "stateMutability": "view",
      "type": "function"
    },
    {
      "constant": true,
      "inputs": [
        {
          "internalType": "uint256",
          "name": "",
          "type": "uint256"
        },
        {
          "internalType": "uint256",
          "name": "",
          "type": "uint256"
        }
      ],
      "name": "organisationToChildren",
      "outputs": [
        {
          "internalType": "uint256",
          "name": "",
          "type": "uint256"
        }
      ],
      "payable": false,
      "stateMutability": "view",
      "type": "function"
    },
    {
      "constant": false,
      "inputs": [
        {
          "internalType": "string",
          "name": "_name",
          "type": "string"
        }
      ],
      "name": "registerChild",
      "outputs": [],
      "payable": false,
      "stateMutability": "nonpayable",
      "type": "function"
    },
    {
      "constant": false,
      "inputs": [
        {
          "internalType": "string",
          "name": "_name",
          "type": "string"
        }
      ],
      "name": "registerOrganisation",
      "outputs": [],
      "payable": false,
      "stateMutability": "nonpayable",
      "type": "function"
    },
    {
      "constant": false,
      "inputs": [
        {
          "internalType": "string",
          "name": "_name",
          "type": "string"
        }
      ],
      "name": "registerParent",
      "outputs": [],
      "payable": false,
      "stateMutability": "nonpayable",
      "type": "function"
    },
    {
      "constant": false,
      "inputs": [
        {
          "internalType": "string",
          "name": "_name",
          "type": "string"
        }
      ],
      "name": "registerReporter",
      "outputs": [],
      "payable": false,
      "stateMutability": "nonpayable",
      "type": "function"
    },
    {
      "constant": false,
      "inputs": [
        {
          "internalType": "uint256",
          "name": "_orgId",
          "type": "uint256"
        }
      ],
      "name": "sendDonation",
      "outputs": [],
      "payable": true,
      "stateMutability": "payable",
      "type": "function"
    },
    {
      "constant": true,
      "inputs": [
        {
          "internalType": "address",
          "name": "_owner",
          "type": "address"
        }
      ],
      "name": "balanceOf",
      "outputs": [
        {
          "internalType": "uint256",
          "name": "",
          "type": "uint256"
        }
      ],
      "payable": false,
      "stateMutability": "view",
      "type": "function"
    },
    {
      "constant": true,
      "inputs": [
        {
          "internalType": "uint256",
          "name": "_tokenId",
          "type": "uint256"
        }
      ],
      "name": "ownerOf",
      "outputs": [
        {
          "internalType": "address",
          "name": "",
          "type": "address"
        }
      ],
      "payable": false,
      "stateMutability": "view",
      "type": "function"
    },
    {
      "constant": false,
      "inputs": [
        {
          "internalType": "address",
          "name": "_from",
          "type": "address"
        },
        {
          "internalType": "address",
          "name": "_to",
          "type": "address"
        },
        {
          "internalType": "uint256",
          "name": "_tokenId",
          "type": "uint256"
        }
      ],
      "name": "_transfer",
      "outputs": [],
      "payable": false,
      "stateMutability": "nonpayable",
      "type": "function"
    },
    {
      "constant": false,
      "inputs": [
        {
          "internalType": "address",
          "name": "_from",
          "type": "address"
        },
        {
          "internalType": "address",
          "name": "_to",
          "type": "address"
        },
        {
          "internalType": "uint256",
          "name": "_tokenId",
          "type": "uint256"
        }
      ],
      "name": "transferFrom",
      "outputs": [],
      "payable": true,
      "stateMutability": "payable",
      "type": "function"
    },
    {
      "constant": false,
      "inputs": [
        {
          "internalType": "address",
          "name": "_approved",
          "type": "address"
        },
        {
          "internalType": "uint256",
          "name": "_tokenId",
          "type": "uint256"
        }
      ],
      "name": "approve",
      "outputs": [],
      "payable": true,
      "stateMutability": "payable",
      "type": "function"
    }
  ],
  "bytecode": "0x608060405234801561001057600080fd5b50611bc3806100206000396000f3fe6080604052600436106100fe5760003560e01c80636a40419a1161009557806398efaed01161006457806398efaed014610340578063c0dc1ebb14610369578063c2987b0c146103a6578063d6a271ea146103e3578063e6767a4b1461040c576100fe565b80636a40419a1461026057806370a082311461029d57806381e344b4146102da578063987a0b5e14610303576100fe565b80634b473b8b116100d15780634b473b8b1461018d57806361dea393146101ca5780636352211e14610207578063665588c914610244576100fe565b8063095ea7b3146101035780631c00e6d11461011f57806323b872dd1461014857806330e0789e14610164575b600080fd5b61011d600480360361011891908101906115e2565b610449565b005b34801561012b57600080fd5b506101466004803603610141919081019061161e565b610564565b005b610162600480360361015d9190810190611593565b6106bd565b005b34801561017057600080fd5b5061018b60048036036101869190810190611593565b6107a1565b005b34801561019957600080fd5b506101b460048036036101af919081019061165f565b610bbb565b6040516101c191906118d9565b60405180910390f35b3480156101d657600080fd5b506101f160048036036101ec919081019061165f565b610bee565b6040516101fe91906119ac565b60405180910390f35b34801561021357600080fd5b5061022e6004803603610229919081019061165f565b610cf2565b60405161023b91906118d9565b60405180910390f35b61025e6004803603610259919081019061165f565b610d2f565b005b34801561026c57600080fd5b506102876004803603610282919081019061165f565b610dc3565b60405161029491906119ce565b60405180910390f35b3480156102a957600080fd5b506102c460048036036102bf919081019061156a565b610ef0565b6040516102d191906119f0565b60405180910390f35b3480156102e657600080fd5b5061030160048036036102fc919081019061161e565b610fef565b005b34801561030f57600080fd5b5061032a6004803603610325919081019061165f565b611120565b60405161033791906118d9565b60405180910390f35b34801561034c57600080fd5b506103676004803603610362919081019061161e565b611153565b005b34801561037557600080fd5b50610390600480360361038b9190810190611688565b611283565b60405161039d91906119f0565b60405180910390f35b3480156103b257600080fd5b506103cd60048036036103c8919081019061156a565b6112b1565b6040516103da91906119f0565b60405180910390f35b3480156103ef57600080fd5b5061040a6004803603610405919081019061161e565b6112c9565b005b34801561041857600080fd5b50610433600480360361042e919081019061156a565b6113c7565b60405161044091906119f0565b60405180910390f35b806006600082815260200190815260200160002060009054906101000a900473ffffffffffffffffffffffffffffffffffffffff1673ffffffffffffffffffffffffffffffffffffffff163373ffffffffffffffffffffffffffffffffffffffff16146104b257fe5b826007600084815260200190815260200160002060006101000a81548173ffffffffffffffffffffffffffffffffffffffff021916908373ffffffffffffffffffffffffffffffffffffffff160217905550818373ffffffffffffffffffffffffffffffffffffffff163373ffffffffffffffffffffffffffffffffffffffff167f8c5be1e5ebec7d5bd14f71427d1e84f3dd0314c0f7b2291e5b200ac8c7c3b92560405160405180910390a4505050565b61056c6113df565b60405180604001604052808381526020013373ffffffffffffffffffffffffffffffffffffffff1681525090506002819080600181540180825580915050906001820390600052602060002090600202016000909192909190915060008201518160000190805190602001906105e392919061140f565b5060208201518160010160006101000a81548173ffffffffffffffffffffffffffffffffffffffff021916908373ffffffffffffffffffffffffffffffffffffffff160217905550505050600160028054905003600360003373ffffffffffffffffffffffffffffffffffffffff1673ffffffffffffffffffffffffffffffffffffffff168152602001908152602001600020819055507f770d5412b2e76b8748cf4a2f31cf18cd533c0f780d2361bc5f40df8bd9388df46001600280549050036040516106b191906118f4565b60405180910390a15050565b3373ffffffffffffffffffffffffffffffffffffffff166006600083815260200190815260200160002060009054906101000a900473ffffffffffffffffffffffffffffffffffffffff1673ffffffffffffffffffffffffffffffffffffffff16148061078857503373ffffffffffffffffffffffffffffffffffffffff166007600083815260200190815260200160002060009054906101000a900473ffffffffffffffffffffffffffffffffffffffff1673ffffffffffffffffffffffffffffffffffffffff16145b61079157600080fd5b61079c8383836107a1565b505050565b6000600360008573ffffffffffffffffffffffffffffffffffffffff1673ffffffffffffffffffffffffffffffffffffffff1681526020019081526020016000205414610a48576000600460008473ffffffffffffffffffffffffffffffffffffffff1673ffffffffffffffffffffffffffffffffffffffff16815260200190815260200160002054141561083257fe5b816006600083815260200190815260200160002060006101000a81548173ffffffffffffffffffffffffffffffffffffffff021916908373ffffffffffffffffffffffffffffffffffffffff16021790555060008090505b60056000600360008773ffffffffffffffffffffffffffffffffffffffff1673ffffffffffffffffffffffffffffffffffffffff168152602001908152602001600020548152602001908152602001600020805490508110801561095557508160056000600360008873ffffffffffffffffffffffffffffffffffffffff1673ffffffffffffffffffffffffffffffffffffffff168152602001908152602001600020548152602001908152602001600020828154811061094757fe5b906000526020600020015414155b1561096757808060010191505061088a565b8160056000600360008873ffffffffffffffffffffffffffffffffffffffff1673ffffffffffffffffffffffffffffffffffffffff16815260200190815260200160002054815260200190815260200160002082815481106109c557fe5b90600052602060002001541415610a425760056000600360008773ffffffffffffffffffffffffffffffffffffffff1673ffffffffffffffffffffffffffffffffffffffff1681526020019081526020016000205481526020019081526020016000208181548110610a3357fe5b90600052602060002001600090555b50610bb6565b6000600460008573ffffffffffffffffffffffffffffffffffffffff1673ffffffffffffffffffffffffffffffffffffffff1681526020019081526020016000205414610bac576000600360008473ffffffffffffffffffffffffffffffffffffffff1673ffffffffffffffffffffffffffffffffffffffff168152602001908152602001600020541415610ad957fe5b816006600083815260200190815260200160002060006101000a81548173ffffffffffffffffffffffffffffffffffffffff021916908373ffffffffffffffffffffffffffffffffffffffff16021790555060056000600360008573ffffffffffffffffffffffffffffffffffffffff1673ffffffffffffffffffffffffffffffffffffffff168152602001908152602001600020548152602001908152602001600020819080600181540180825580915050906001820390600052602060002001600090919290919091505550610bb5565b6000610bb457fe5b5b5b505050565b60066020528060005260406000206000915054906101000a900473ffffffffffffffffffffffffffffffffffffffff1681565b610bf661148f565b60008281548110610c0357fe5b9060005260206000209060020201604051806040016040529081600082018054600181600116156101000203166002900480601f016020809104026020016040519081016040528092919081815260200182805460018160011615610100020316600290048015610cb55780601f10610c8a57610100808354040283529160200191610cb5565b820191906000526020600020905b815481529060010190602001808311610c9857829003601f168201915b505050505081526020016001820160009054906101000a900460ff166001811115610cdc57fe5b6001811115610ce757fe5b815250509050919050565b60006006600083815260200190815260200160002060009054906101000a900473ffffffffffffffffffffffffffffffffffffffff169050919050565b6000349050600060028381548110610d4357fe5b906000526020600020906002020160010160009054906101000a900473ffffffffffffffffffffffffffffffffffffffff1690508073ffffffffffffffffffffffffffffffffffffffff166108fc839081150290604051600060405180830381858888f19350505050158015610dbd573d6000803e3d6000fd5b50505050565b610dcb6113df565b60028281548110610dd857fe5b9060005260206000209060020201604051806040016040529081600082018054600181600116156101000203166002900480601f016020809104026020016040519081016040528092919081815260200182805460018160011615610100020316600290048015610e8a5780601f10610e5f57610100808354040283529160200191610e8a565b820191906000526020600020905b815481529060010190602001808311610e6d57829003601f168201915b505050505081526020016001820160009054906101000a900473ffffffffffffffffffffffffffffffffffffffff1673ffffffffffffffffffffffffffffffffffffffff1673ffffffffffffffffffffffffffffffffffffffff16815250509050919050565b600080600360008473ffffffffffffffffffffffffffffffffffffffff1673ffffffffffffffffffffffffffffffffffffffff1681526020019081526020016000205414610f955760056000600360008573ffffffffffffffffffffffffffffffffffffffff1673ffffffffffffffffffffffffffffffffffffffff168152602001908152602001600020548152602001908152602001600020805490509050610fea565b6000600460008473ffffffffffffffffffffffffffffffffffffffff1673ffffffffffffffffffffffffffffffffffffffff1681526020019081526020016000205414610fe55760019050610fea565b600190505b919050565b610ff761148f565b60405180604001604052808381526020016000600181111561101557fe5b815250905060008190806001815401808255809150509060018203906000526020600020906002020160009091929091909150600082015181600001908051906020019061106492919061140f565b5060208201518160010160006101000a81548160ff0219169083600181111561108957fe5b0217905550505050600160008054905003600460003373ffffffffffffffffffffffffffffffffffffffff1673ffffffffffffffffffffffffffffffffffffffff168152602001908152602001600020819055507f197794d6c56c45a0d8c19d96a1561ea8f6919884425895c674a228fa2229be1a600160008054905003604051611114919061197e565b60405180910390a15050565b60076020528060005260406000206000915054906101000a900473ffffffffffffffffffffffffffffffffffffffff1681565b61115b61148f565b604051806040016040528083815260200160018081111561117857fe5b81525090506000819080600181540180825580915050906001820390600052602060002090600202016000909192909190915060008201518160000190805190602001906111c792919061140f565b5060208201518160010160006101000a81548160ff021916908360018111156111ec57fe5b0217905550505050600160008054905003600460003373ffffffffffffffffffffffffffffffffffffffff1673ffffffffffffffffffffffffffffffffffffffff168152602001908152602001600020819055507f197794d6c56c45a0d8c19d96a1561ea8f6919884425895c674a228fa2229be1a6001600080549050036040516112779190611922565b60405180910390a15050565b6005602052816000526040600020818154811061129c57fe5b90600052602060002001600091509150505481565b60046020528060005260406000206000915090505481565b6112d16114b4565b6040518060200160405280838152509050600181908060018154018082558091505090600182039060005260206000200160009091929091909150600082015181600001908051906020019061132892919061140f565b5050505033600660006001808054905003815260200190815260200160002060006101000a81548173ffffffffffffffffffffffffffffffffffffffff021916908373ffffffffffffffffffffffffffffffffffffffff1602179055507fe583225895a800ee5cc9317a1394af10af37c4d3be19ec79faed77107540a8c660018080549050036040516113bb9190611950565b60405180910390a15050565b60036020528060005260406000206000915090505481565b604051806040016040528060608152602001600073ffffffffffffffffffffffffffffffffffffffff1681525090565b828054600181600116156101000203166002900490600052602060002090601f016020900481019282601f1061145057805160ff191683800117855561147e565b8280016001018555821561147e579182015b8281111561147d578251825591602001919060010190611462565b5b50905061148b91906114c7565b5090565b604051806040016040528060608152602001600060018111156114ae57fe5b81525090565b6040518060200160405280606081525090565b6114e991905b808211156114e55760008160009055506001016114cd565b5090565b90565b6000813590506114fb81611b52565b92915050565b600082601f83011261151257600080fd5b813561152561152082611a38565b611a0b565b9150808252602083016020830185838301111561154157600080fd5b61154c838284611af2565b50505092915050565b60008135905061156481611b69565b92915050565b60006020828403121561157c57600080fd5b600061158a848285016114ec565b91505092915050565b6000806000606084860312156115a857600080fd5b60006115b6868287016114ec565b93505060206115c7868287016114ec565b92505060406115d886828701611555565b9150509250925092565b600080604083850312156115f557600080fd5b6000611603858286016114ec565b925050602061161485828601611555565b9150509250929050565b60006020828403121561163057600080fd5b600082013567ffffffffffffffff81111561164a57600080fd5b61165684828501611501565b91505092915050565b60006020828403121561167157600080fd5b600061167f84828501611555565b91505092915050565b6000806040838503121561169b57600080fd5b60006116a985828601611555565b92505060206116ba85828601611555565b9150509250929050565b6116cd81611a91565b82525050565b6116dc81611a91565b82525050565b6116eb81611ae0565b82525050565b60006116fc82611a64565b6117068185611a6f565b9350611716818560208601611b01565b61171f81611b34565b840191505092915050565b6000611737602383611a80565b91507f53756363657366756c6c792072656769737465726564206f7267616e6973617460008301527f696f6e00000000000000000000000000000000000000000000000000000000006020830152604082019050919050565b600061179d601d83611a80565b91507f53756363657366756c6c79207265676973746572656420506172656e740000006000830152602082019050919050565b60006117dd601d83611a80565b91507f5375636365737366756c6c792072656769737465726564206368696c640000006000830152602082019050919050565b600061181d601f83611a80565b91507f53756363657366756c6c792072656769737465726564207265706f72746572006000830152602082019050919050565b6000604083016000830151848203600086015261186d82826116f1565b915050602083015161188260208601826116e2565b508091505092915050565b600060408301600083015184820360008601526118aa82826116f1565b91505060208301516118bf60208601826116c4565b508091505092915050565b6118d381611ad6565b82525050565b60006020820190506118ee60008301846116d3565b92915050565b6000604082019050818103600083015261190d8161172a565b905061191c60208301846118ca565b92915050565b6000604082019050818103600083015261193b81611790565b905061194a60208301846118ca565b92915050565b60006040820190508181036000830152611969816117d0565b905061197860208301846118ca565b92915050565b6000604082019050818103600083015261199781611810565b90506119a660208301846118ca565b92915050565b600060208201905081810360008301526119c68184611850565b905092915050565b600060208201905081810360008301526119e8818461188d565b905092915050565b6000602082019050611a0560008301846118ca565b92915050565b6000604051905081810181811067ffffffffffffffff82111715611a2e57600080fd5b8060405250919050565b600067ffffffffffffffff821115611a4f57600080fd5b601f19601f8301169050602081019050919050565b600081519050919050565b600082825260208201905092915050565b600082825260208201905092915050565b6000611a9c82611ab6565b9050919050565b6000819050611ab182611b45565b919050565b600073ffffffffffffffffffffffffffffffffffffffff82169050919050565b6000819050919050565b6000611aeb82611aa3565b9050919050565b82818337600083830152505050565b60005b83811015611b1f578082015181840152602081019050611b04565b83811115611b2e576000848401525b50505050565b6000601f19601f8301169050919050565b60028110611b4f57fe5b50565b611b5b81611a91565b8114611b6657600080fd5b50565b611b7281611ad6565b8114611b7d57600080fd5b5056fea365627a7a72315820e7cc97e549a7580865e2dcfce6b1d9a1ad3872b5b5d8f37c31658a0c37c73cb86c6578706572696d656e74616cf564736f6c63430005100040",
  "source": "// SPDX-License-Identifier: GPL-3.0\r\npragma solidity >=0.5.16 <0.9.0;\r\npragma experimental ABIEncoderV2;\r\n\r\n\r\nimport \"./ChildReport.sol\";\r\nimport \"./erc721.sol\";\r\n\r\ncontract ChildOwnership is ChildReport, ERC721{\r\n    \r\n    mapping (uint => address) public childApprovals;\r\n    \r\n    function balanceOf(address _owner) external view returns (uint256) {\r\n        if (addressToOrganisation[_owner] != 0) return organisationToChildren[addressToOrganisation[_owner]].length;\r\n        else if (addressToGuardian[_owner] != 0) return 1;\r\n        else return 1;\r\n    }\r\n    \r\n    function ownerOf(uint256 _tokenId) external view returns (address) {\r\n        return childToCareTaker[_tokenId];\r\n    }\r\n    \r\n    function _transfer(address _from, address _to, uint256 _tokenId) public {\r\n        if (addressToOrganisation[_from] != 0){\r\n            assert(addressToGuardian[_to] != 0);\r\n            childToCareTaker[_tokenId] = _to;\r\n            uint i = 0;\r\n            while ((i < organisationToChildren[addressToOrganisation[_from]].length)&&(organisationToChildren[addressToOrganisation[_from]][i] != _tokenId)) i++;\r\n            if (organisationToChildren[addressToOrganisation[_from]][i] == _tokenId) delete organisationToChildren[addressToOrganisation[_from]][i];\r\n        }\r\n        else if (addressToGuardian[_from] != 0){\r\n            assert(addressToOrganisation[_to] != 0);\r\n            childToCareTaker[_tokenId] = _to;\r\n            organisationToChildren[addressToOrganisation[_to]].push(_tokenId);\r\n        }\r\n        else{\r\n            assert(false);\r\n        }\r\n    }\r\n\r\n    function transferFrom(address _from, address _to, uint256 _tokenId) external payable {\r\n        require(childToCareTaker[_tokenId] == msg.sender || childApprovals[_tokenId] == msg.sender);\r\n        _transfer(_from, _to, _tokenId);\r\n    }\r\n\r\n    function approve(address _approved, uint256 _tokenId) external payable onlyCareTakerOf(_tokenId){\r\n        childApprovals[_tokenId] = _approved;\r\n        emit Approval(msg.sender, _approved, _tokenId);\r\n    }\r\n}",
  "sourcePath": "C:/Users/shash/OneDrive/Desktop/Gits/CARE/contracts/ChildOwnership.sol",
  "compiler": {
    "name": "solc",
    "version": "0.5.16+commit.9c3226ce.Emscripten.clang"
  },
  "schemaVersion": "3.4.1",
  "updatedAt": "2021-05-29T20:26:29.998Z",
  "networkType": "ethereum",
  "devdoc": {
    "methods": {}
  },
  "userdoc": {
    "methods": {}
  }
}