{
  "contractName": "ChildReport",
  "abi": [
    {
      "anonymous": false,
      "inputs": [
        {
          "indexed": false,
          "internalType": "string",
          "name": "msg",
          "type": "string"
        },
        {
          "indexed": false,
          "internalType": "uint256",
          "name": "id",
          "type": "uint256"
        }
      ],
      "name": "registeredChild",
      "type": "event"
    },
    {
      "anonymous": false,
      "inputs": [
        {
          "indexed": false,
          "internalType": "string",
          "name": "msg",
          "type": "string"
        },
        {
          "indexed": false,
          "internalType": "uint256",
          "name": "id",
          "type": "uint256"
        }
      ],
      "name": "registeredGuardian",
      "type": "event"
    },
    {
      "anonymous": false,
      "inputs": [
        {
          "indexed": false,
          "internalType": "string",
          "name": "msg",
          "type": "string"
        },
        {
          "indexed": false,
          "internalType": "uint256",
          "name": "id",
          "type": "uint256"
        }
      ],
      "name": "registeredOrganisation",
      "type": "event"
    },
    {
      "constant": true,
      "inputs": [
        {
          "internalType": "address",
          "name": "",
          "type": "address"
        }
      ],
      "name": "addressToGuardian",
      "outputs": [
        {
          "internalType": "uint256",
          "name": "",
          "type": "uint256"
        }
      ],
      "payable": false,
      "stateMutability": "view",
      "type": "function"
    },
    {
      "constant": true,
      "inputs": [
        {
          "internalType": "address",
          "name": "",
          "type": "address"
        }
      ],
      "name": "addressToOrganisation",
      "outputs": [
        {
          "internalType": "uint256",
          "name": "",
          "type": "uint256"
        }
      ],
      "payable": false,
      "stateMutability": "view",
      "type": "function"
    },
    {
      "constant": true,
      "inputs": [
        {
          "internalType": "uint256",
          "name": "",
          "type": "uint256"
        }
      ],
      "name": "childToCareTaker",
      "outputs": [
        {
          "internalType": "address",
          "name": "",
          "type": "address"
        }
      ],
      "payable": false,
      "stateMutability": "view",
      "type": "function"
    },
    {
      "constant": true,
      "inputs": [
        {
          "internalType": "uint256",
          "name": "",
          "type": "uint256"
        },
        {
          "internalType": "uint256",
          "name": "",
          "type": "uint256"
        }
      ],
      "name": "organisationToChildren",
      "outputs": [
        {
          "internalType": "uint256",
          "name": "",
          "type": "uint256"
        }
      ],
      "payable": false,
      "stateMutability": "view",
      "type": "function"
    },
    {
      "constant": false,
      "inputs": [
        {
          "internalType": "string",
          "name": "_name",
          "type": "string"
        }
      ],
      "name": "registerReporter",
      "outputs": [],
      "payable": false,
      "stateMutability": "nonpayable",
      "type": "function"
    },
    {
      "constant": false,
      "inputs": [
        {
          "internalType": "string",
          "name": "_name",
          "type": "string"
        }
      ],
      "name": "registerParent",
      "outputs": [],
      "payable": false,
      "stateMutability": "nonpayable",
      "type": "function"
    },
    {
      "constant": false,
      "inputs": [
        {
          "internalType": "string",
          "name": "_name",
          "type": "string"
        }
      ],
      "name": "registerChild",
      "outputs": [],
      "payable": false,
      "stateMutability": "nonpayable",
      "type": "function"
    },
    {
      "constant": false,
      "inputs": [
        {
          "internalType": "string",
          "name": "_name",
          "type": "string"
        }
      ],
      "name": "registerOrganisation",
      "outputs": [],
      "payable": false,
      "stateMutability": "nonpayable",
      "type": "function"
    },
    {
      "constant": true,
      "inputs": [
        {
          "internalType": "uint256",
          "name": "_id",
          "type": "uint256"
        }
      ],
      "name": "getOrganisationDetails",
      "outputs": [
        {
          "components": [
            {
              "internalType": "string",
              "name": "name",
              "type": "string"
            },
            {
              "internalType": "address",
              "name": "addr",
              "type": "address"
            }
          ],
          "internalType": "struct ChildReport.Organisation",
          "name": "",
          "type": "tuple"
        }
      ],
      "payable": false,
      "stateMutability": "view",
      "type": "function"
    },
    {
      "constant": true,
      "inputs": [
        {
          "internalType": "uint256",
          "name": "_id",
          "type": "uint256"
        }
      ],
      "name": "getGuardianDetails",
      "outputs": [
        {
          "components": [
            {
              "internalType": "string",
              "name": "name",
              "type": "string"
            },
            {
              "internalType": "enum ChildReport.GuardianType",
              "name": "guardianType",
              "type": "uint8"
            }
          ],
          "internalType": "struct ChildReport.Guardian",
          "name": "",
          "type": "tuple"
        }
      ],
      "payable": false,
      "stateMutability": "view",
      "type": "function"
    },
    {
      "constant": false,
      "inputs": [
        {
          "internalType": "uint256",
          "name": "_orgId",
          "type": "uint256"
        }
      ],
      "name": "sendDonation",
      "outputs": [],
      "payable": true,
      "stateMutability": "payable",
      "type": "function"
    }
  ],
  "bytecode": "0x608060405234801561001057600080fd5b50611236806100206000396000f3fe60806040526004361061009c5760003560e01c806381e344b41161006457806381e344b41461019d57806398efaed0146101c6578063c0dc1ebb146101ef578063c2987b0c1461022c578063d6a271ea14610269578063e6767a4b146102925761009c565b80631c00e6d1146100a15780634b473b8b146100ca57806361dea39314610107578063665588c9146101445780636a40419a14610160575b600080fd5b3480156100ad57600080fd5b506100c860048036036100c39190810190610c91565b6102cf565b005b3480156100d657600080fd5b506100f160048036036100ec9190810190610cd2565b610428565b6040516100fe9190610f4c565b60405180910390f35b34801561011357600080fd5b5061012e60048036036101299190810190610cd2565b61045b565b60405161013b919061101f565b60405180910390f35b61015e60048036036101599190810190610cd2565b61055f565b005b34801561016c57600080fd5b5061018760048036036101829190810190610cd2565b6105f3565b6040516101949190611041565b60405180910390f35b3480156101a957600080fd5b506101c460048036036101bf9190810190610c91565b610720565b005b3480156101d257600080fd5b506101ed60048036036101e89190810190610c91565b610851565b005b3480156101fb57600080fd5b5061021660048036036102119190810190610cfb565b610981565b6040516102239190611063565b60405180910390f35b34801561023857600080fd5b50610253600480360361024e9190810190610c68565b6109af565b6040516102609190611063565b60405180910390f35b34801561027557600080fd5b50610290600480360361028b9190810190610c91565b6109c7565b005b34801561029e57600080fd5b506102b960048036036102b49190810190610c68565b610ac5565b6040516102c69190611063565b60405180910390f35b6102d7610add565b60405180604001604052808381526020013373ffffffffffffffffffffffffffffffffffffffff16815250905060028190806001815401808255809150509060018203906000526020600020906002020160009091929091909150600082015181600001908051906020019061034e929190610b0d565b5060208201518160010160006101000a81548173ffffffffffffffffffffffffffffffffffffffff021916908373ffffffffffffffffffffffffffffffffffffffff160217905550505050600160028054905003600360003373ffffffffffffffffffffffffffffffffffffffff1673ffffffffffffffffffffffffffffffffffffffff168152602001908152602001600020819055507f770d5412b2e76b8748cf4a2f31cf18cd533c0f780d2361bc5f40df8bd9388df460016002805490500360405161041c9190610f67565b60405180910390a15050565b60066020528060005260406000206000915054906101000a900473ffffffffffffffffffffffffffffffffffffffff1681565b610463610b8d565b6000828154811061047057fe5b9060005260206000209060020201604051806040016040529081600082018054600181600116156101000203166002900480601f0160208091040260200160405190810160405280929190818152602001828054600181600116156101000203166002900480156105225780601f106104f757610100808354040283529160200191610522565b820191906000526020600020905b81548152906001019060200180831161050557829003601f168201915b505050505081526020016001820160009054906101000a900460ff16600181111561054957fe5b600181111561055457fe5b815250509050919050565b600034905060006002838154811061057357fe5b906000526020600020906002020160010160009054906101000a900473ffffffffffffffffffffffffffffffffffffffff1690508073ffffffffffffffffffffffffffffffffffffffff166108fc839081150290604051600060405180830381858888f193505050501580156105ed573d6000803e3d6000fd5b50505050565b6105fb610add565b6002828154811061060857fe5b9060005260206000209060020201604051806040016040529081600082018054600181600116156101000203166002900480601f0160208091040260200160405190810160405280929190818152602001828054600181600116156101000203166002900480156106ba5780601f1061068f576101008083540402835291602001916106ba565b820191906000526020600020905b81548152906001019060200180831161069d57829003601f168201915b505050505081526020016001820160009054906101000a900473ffffffffffffffffffffffffffffffffffffffff1673ffffffffffffffffffffffffffffffffffffffff1673ffffffffffffffffffffffffffffffffffffffff16815250509050919050565b610728610b8d565b60405180604001604052808381526020016000600181111561074657fe5b8152509050600081908060018154018082558091505090600182039060005260206000209060020201600090919290919091506000820151816000019080519060200190610795929190610b0d565b5060208201518160010160006101000a81548160ff021916908360018111156107ba57fe5b0217905550505050600160008054905003600460003373ffffffffffffffffffffffffffffffffffffffff1673ffffffffffffffffffffffffffffffffffffffff168152602001908152602001600020819055507f197794d6c56c45a0d8c19d96a1561ea8f6919884425895c674a228fa2229be1a6001600080549050036040516108459190610ff1565b60405180910390a15050565b610859610b8d565b604051806040016040528083815260200160018081111561087657fe5b81525090506000819080600181540180825580915050906001820390600052602060002090600202016000909192909190915060008201518160000190805190602001906108c5929190610b0d565b5060208201518160010160006101000a81548160ff021916908360018111156108ea57fe5b0217905550505050600160008054905003600460003373ffffffffffffffffffffffffffffffffffffffff1673ffffffffffffffffffffffffffffffffffffffff168152602001908152602001600020819055507f197794d6c56c45a0d8c19d96a1561ea8f6919884425895c674a228fa2229be1a6001600080549050036040516109759190610f95565b60405180910390a15050565b6005602052816000526040600020818154811061099a57fe5b90600052602060002001600091509150505481565b60046020528060005260406000206000915090505481565b6109cf610bb2565b60405180602001604052808381525090506001819080600181540180825580915050906001820390600052602060002001600090919290919091506000820151816000019080519060200190610a26929190610b0d565b5050505033600660006001808054905003815260200190815260200160002060006101000a81548173ffffffffffffffffffffffffffffffffffffffff021916908373ffffffffffffffffffffffffffffffffffffffff1602179055507fe583225895a800ee5cc9317a1394af10af37c4d3be19ec79faed77107540a8c66001808054905003604051610ab99190610fc3565b60405180910390a15050565b60036020528060005260406000206000915090505481565b604051806040016040528060608152602001600073ffffffffffffffffffffffffffffffffffffffff1681525090565b828054600181600116156101000203166002900490600052602060002090601f016020900481019282601f10610b4e57805160ff1916838001178555610b7c565b82800160010185558215610b7c579182015b82811115610b7b578251825591602001919060010190610b60565b5b509050610b899190610bc5565b5090565b60405180604001604052806060815260200160006001811115610bac57fe5b81525090565b6040518060200160405280606081525090565b610be791905b80821115610be3576000816000905550600101610bcb565b5090565b90565b600081359050610bf9816111c5565b92915050565b600082601f830112610c1057600080fd5b8135610c23610c1e826110ab565b61107e565b91508082526020830160208301858383011115610c3f57600080fd5b610c4a838284611165565b50505092915050565b600081359050610c62816111dc565b92915050565b600060208284031215610c7a57600080fd5b6000610c8884828501610bea565b91505092915050565b600060208284031215610ca357600080fd5b600082013567ffffffffffffffff811115610cbd57600080fd5b610cc984828501610bff565b91505092915050565b600060208284031215610ce457600080fd5b6000610cf284828501610c53565b91505092915050565b60008060408385031215610d0e57600080fd5b6000610d1c85828601610c53565b9250506020610d2d85828601610c53565b9150509250929050565b610d4081611104565b82525050565b610d4f81611104565b82525050565b610d5e81611153565b82525050565b6000610d6f826110d7565b610d7981856110e2565b9350610d89818560208601611174565b610d92816111a7565b840191505092915050565b6000610daa6023836110f3565b91507f53756363657366756c6c792072656769737465726564206f7267616e6973617460008301527f696f6e00000000000000000000000000000000000000000000000000000000006020830152604082019050919050565b6000610e10601d836110f3565b91507f53756363657366756c6c79207265676973746572656420506172656e740000006000830152602082019050919050565b6000610e50601d836110f3565b91507f5375636365737366756c6c792072656769737465726564206368696c640000006000830152602082019050919050565b6000610e90601f836110f3565b91507f53756363657366756c6c792072656769737465726564207265706f72746572006000830152602082019050919050565b60006040830160008301518482036000860152610ee08282610d64565b9150506020830151610ef56020860182610d55565b508091505092915050565b60006040830160008301518482036000860152610f1d8282610d64565b9150506020830151610f326020860182610d37565b508091505092915050565b610f4681611149565b82525050565b6000602082019050610f616000830184610d46565b92915050565b60006040820190508181036000830152610f8081610d9d565b9050610f8f6020830184610f3d565b92915050565b60006040820190508181036000830152610fae81610e03565b9050610fbd6020830184610f3d565b92915050565b60006040820190508181036000830152610fdc81610e43565b9050610feb6020830184610f3d565b92915050565b6000604082019050818103600083015261100a81610e83565b90506110196020830184610f3d565b92915050565b600060208201905081810360008301526110398184610ec3565b905092915050565b6000602082019050818103600083015261105b8184610f00565b905092915050565b60006020820190506110786000830184610f3d565b92915050565b6000604051905081810181811067ffffffffffffffff821117156110a157600080fd5b8060405250919050565b600067ffffffffffffffff8211156110c257600080fd5b601f19601f8301169050602081019050919050565b600081519050919050565b600082825260208201905092915050565b600082825260208201905092915050565b600061110f82611129565b9050919050565b6000819050611124826111b8565b919050565b600073ffffffffffffffffffffffffffffffffffffffff82169050919050565b6000819050919050565b600061115e82611116565b9050919050565b82818337600083830152505050565b60005b83811015611192578082015181840152602081019050611177565b838111156111a1576000848401525b50505050565b6000601f19601f8301169050919050565b600281106111c257fe5b50565b6111ce81611104565b81146111d957600080fd5b50565b6111e581611149565b81146111f057600080fd5b5056fea365627a7a72315820750080cb9913acbfedbb140e35d5be0558e79b93f35780f540710660edae3d476c6578706572696d656e74616cf564736f6c63430005100040",
  "source": "// SPDX-License-Identifier: GPL-3.0\r\npragma solidity >=0.5.16 <0.9.0;\r\npragma experimental ABIEncoderV2;\r\n\r\n\r\ncontract ChildReport{\r\n    enum GuardianType{REPORTER, PARENT}\r\n    \r\n    struct Guardian{\r\n        string name;\r\n        GuardianType guardianType;\r\n    }\r\n    \r\n    struct Child{\r\n        string name;\r\n    }\r\n    \r\n    struct Organisation{\r\n        string name;\r\n        address addr;\r\n    }\r\n    \r\n    Guardian[] private guardians;\r\n    Child[] private children;\r\n    Organisation[] private organisations;\r\n    \r\n    mapping (address => uint) public addressToOrganisation; \r\n    mapping (address => uint) public addressToGuardian;\r\n    mapping (uint => uint[]) public organisationToChildren;\r\n    mapping (uint => address) public childToCareTaker;\r\n    \r\n    event registeredGuardian(string msg, uint id);\r\n    event registeredChild(string msg, uint id);\r\n    event registeredOrganisation(string msg, uint id);\r\n    \r\n    modifier onlyCareTakerOf(uint256 _tokenID){\r\n        assert(msg.sender == childToCareTaker[_tokenID]);\r\n        _;\r\n    }\r\n    \r\n    function registerReporter(string memory _name) public {\r\n        Guardian memory reporter = Guardian(_name, GuardianType.REPORTER);\r\n        guardians.push(reporter);\r\n        addressToGuardian[msg.sender] = guardians.length - 1;\r\n        emit registeredGuardian(\"Succesfully registered reporter\", guardians.length - 1);\r\n    }\r\n    \r\n    function registerParent(string memory _name) public {\r\n        Guardian memory parent = Guardian(_name, GuardianType.PARENT);\r\n        guardians.push(parent);\r\n        addressToGuardian[msg.sender] = guardians.length - 1;\r\n        emit registeredGuardian(\"Succesfully registered Parent\", guardians.length - 1);\r\n    }\r\n    \r\n    function registerChild(string memory _name) public {\r\n        Child memory child = Child(_name);\r\n        children.push(child);\r\n        childToCareTaker[children.length - 1] = msg.sender;\r\n        emit registeredChild(\"Successfully registered child\", children.length - 1);\r\n    }\r\n    \r\n    function registerOrganisation(string memory _name) public {\r\n        Organisation memory organisation = Organisation(_name, msg.sender);\r\n        organisations.push(organisation);\r\n        addressToOrganisation[msg.sender] = organisations.length - 1;\r\n        emit registeredOrganisation(\"Succesfully registered organisation\", organisations.length - 1);\r\n    }\r\n    \r\n    function getOrganisationDetails(uint _id) public view returns(Organisation memory){\r\n        return organisations[_id];\r\n    }\r\n    \r\n    function getGuardianDetails(uint _id) public view returns(Guardian memory){\r\n        return guardians[_id];\r\n    }\r\n    \r\n    function sendDonation(uint _orgId) public payable {\r\n        uint256 amount = msg.value;\r\n        address payable receiver = address(uint160(organisations[_orgId].addr));\r\n        // address payable receiver = payable(organisations[_orgId].addr);\r\n        receiver.transfer(amount);\r\n    }\r\n    \r\n}",
  "sourcePath": "C:/Users/shash/OneDrive/Desktop/Gits/CARE/contracts/ChildReport.sol",
  "compiler": {
    "name": "solc",
    "version": "0.5.16+commit.9c3226ce.Emscripten.clang"
  },
  "schemaVersion": "3.4.1",
  "updatedAt": "2021-05-29T20:26:28.866Z",
  "networkType": "ethereum",
  "devdoc": {
    "methods": {}
  },
  "userdoc": {
    "methods": {}
  }
}